:0602A3000114000113002C
:1002190075985075CDFF75CCFD75CBFF75CAFDD2AC
:10022900CCD2CDC2C9C2CBD2CAD2ACD299D2AF221A
:080003008F993099FDC299228A
:0802C0003099FDC2998F9922CB
:060193008B098A0A890BAA
:1001990085140CE4F50D1202077F01FE12000EE52D
:1001A9000CB514136011AB09AA0AA90BE5141202C4
:0701B90007E4F514751301C2
:0101C000221C
:03002300020120B7
:10012000C0E0C083C082C0D075D000C0073098291D
:10013000C2ACC298E513701FE514C394324007D2D5
:10014000AC7514008013AF14051474002FF582E40D
:100150003400F583E599F0D2ACD007D0D0D082D06E
:0401600083D0E03236
:10023900515220636F64653A005152636F646520BF
:0A024900746F6F206C61726765002E
:0302A9000112003F
:1000B200E4F50812021912025312027B7BFF7A0244
:1000C2007939750E08E4FDFF1201C17B007A0079CF
:1000D20012120193E5126042D39414501D7B017AEF
:1000E200007900750E107D01E4FF1201C1C2917FFB
:1000F2000A7E00120289D29180107BFF7A02794235
:10010200750E107D01E4FF1201C1D28C7F1E7E00AC
:0E01120012000EC28CE4F513F514B29080AD0D
:0E027B00758901758CFC758A66D2AFD2A922F6
:03000B000202B737
:0902B700758CFC758A66B2B63242
:0902AD00007F027EC7DEFEDFFCCB
:0102B6002225
:0E028900EF1FAC0670011E4C60030080F322D4
:10000E00AD07AC06ED1DAE0470011C4E600512026C
:04001E00AD80F1229E
:0C029700C2B67F147E0012000ED2B62208
:10016400C2858FA07F057E00120175D2857F057E32
:01017400008A
:10017500D3EF9400EE940040147D6E7C00ED1D706D
:0D018500011CED4C70F7EF1F70E61E80E3CB
:01019200224A
:0802C800C287120164C2852205
:0802D000D287120164C28522ED
:10026900ED7006EF2480FB8004EF24C0FBAF03028E
:0202790002C8B9
:1001C1008B0B8A0C890D120269AF0E150EEF601CA4
:1001D100AB0BAA0CA90D1201EEFFF5A01202D0740F
:0D01E10001250DF50DE4350CF50C80DD2237
:10025300C2867F381202C87F0C1202C87F061202C0
:06026300C87F010202C881
:03000000020026D5
:0C002600787FE4F6D8FD75811402006DAF
:1001EE00BB010689828A83E0225002E722BBFE020F
:0901FE00E32289828A83E4932242
:10020700BB010689828A83F0225002F722BBFE01D6
:02021700F322D0
:100032000200B2E493A3F8E493A34003F68001F232
:1000420008DFF48029E493A3F85407240CC8C333CF
:10005200C4540F4420C8834004F456800146F6DF9E
:10006200E4800B01020408102040809002A3E47E89
:10007200019360BCA3FF543F30E509541FFEE49393
:10008200A360010ECF54C025E060A840B8E493A35A
:10009200FAE493A3F8E493A3C8C582C8CAC583CA85
:1000A200F0A3C8C582C8CAC583CADFE9DEE780BE3D
:0102AC000051
:00000001FF
