:060B0600010C00010B00D0
:0F0B5100439A50759CFD438E1475AF01D2AF22AD
:030043000209248B
:10092400C0E0C083C082C0D075D000C007E59A3053
:10093400E01F539AFEE50CC3941E5015E50B70118D
:10094400AF0C050C74002FF582E43400F583E59BAD
:0C095400F0D007D0D0D082D083D0E032A9
:06000E008B238A248925E2
:10001400850C26E4F5271206017F0AFE120B1AE569
:1000240026B50C136011AB23AA24A925E50C1206EE
:0700340001E4F50C750B015E
:01003B0022A2
:100ABF0030303031003030303200303030330030B1
:090ACF00303034003030303500C5
:090B0C00010A00010900010800C2
:1004B000E4F522120B51120B411208E61209997B46
:1004C000007A00790A12000EE50A700302058475AD
:1004D00026FF75270A7528BF7B017A00790012076D
:1004E000BBE94A4B60087BFF7A047933807A752632
:1004F000FF75270A7528C47B017A0079001207BBB3
:10050000E94A4B60087BFF7A04794C805B7526FFD3
:1005100075270A7528C97B017A0079001207BBE9A3
:100520004A4B60087BFF7A047965803C7526FF752D
:10053000270A7528CE7B017A0079001207BBE94AA9
:100540004B60087BFF7A04797E801D7526FF752736
:100550000A7528D37B017A0079001207BBE94A4B60
:1005600060097BFF7A047997120697120B60750970
:1005700001E4F50BFE7F1EFD7B017A007900120677
:1005800013E4F50C1209608F08E508B40110E509C1
:10059000B4010B120A29E4F509F5080204BFE508C5
:1005A000640460030204BFE509640160030204BF40
:0B05B000120A52E4F509F5080204BF2E
:0C0B6000C2917F0A7E0012003CD291225C
:090B6C00007F0B7EBEDEFEDFFC03
:010B7500225D
:06003C008E238F24002238
:100B1A00AD07AC06ED1DAE0470011C4E6005120B4C
:040B2A006C80F122C8
:030B8200256400E7
:0F09D1008BA07F017E001209E0D2857F017E009E
:1009E000EF1FAA0670011E4A6013E4FCFDC3ED94DC
:0D09F0006EEC940050EA0DBD00010C80F08B
:0109FD0022D7
:100AD800E4F5A0C287D286D2857F01FE1209E0E53F
:080AE800A0339200C285A200B8
:010AF00022E3
:100AF100AB07120AD840FBC287C286C2850000122A
:050B010009D1C28522AC
:100B2E00AB07120AD840FBD287C286C2851209D102
:030B3E00C285224B
:1008E600D2847F0A7E001209E07F34120AF17F0566
:1008F6007E001209E07F30120AF17F057E001209A0
:10090600E07F0C120AF17F057E001209E07F0112DA
:0E0916000AF17F057E001209E07F06020AF159
:07000300EF70031208E62272
:10083D008F3A8B3B8A3C893DED1460101460131484
:10084D0060162403701AE53A24808010E53A24904E
:10085D00800AE53A24888004E53A2498FF120AF1CB
:10086D00AB3BAA3CA93D1205BBFFD3940040171228
:10087D000B2E7F0A7E001209E07401253DF53DE443
:07088D00353CF53C80DA2246
:0809FE008F328D33AF03AE020E
:100A0600753DFF753E0B753F828E408F417B007AA8
:100A16000079341200A27B007A007934AD33AF320C
:030A260002083D86
:040B1500020D0000CD
:100B4100438901E4F58A758CDCD28CD2A9D2AF221B
:03000B00020AA244
:100AA200C0E0758A00758CDC050EE50E7002050D3E
:0D0AB2006414450D7004F50DF50ED0E03212
:1003A2003D3D3D3DBBB6D3ADCAB9D3C33D3D3D3D59
:1003B20000D6C7C4DCC9A8C2EBC9E8B1B8002D2D6C
:1003C2002D2DC7EBC9A8C2EB2D2D2D2D0044657331
:1003D20069676E2020427920205858580051523ABD
:1003E20000C6B7C3FB3A00BCDBB8F13A00D4AA009E
:1003F2002D2D2D2DC7EBD6A7B8B62D2D2D2D00D620
:10040200A7B8B6B3C9B9A6A3A1003320C3EBBAF308
:10041200D7D4B6AFB7B5BBD800C8A1CFFBD6A7B863
:10042200B6003220C3EBBAF3D7D4B6AFB7B5BBD858
:1004320000383634313938333232303139303030B5
:1004420031B1F9BAECB2E800000338363431393848
:1004520033323230313930303032C3E6B0FC000052
:1004620000000338363431393833323230313930E2
:10047200303033D6BDBDED000000000138363431D6
:10048200393833323230313930303034D1C0CBA206
:100492000000000005383634313938333232303119
:0E04A2003930303035CFB4B7A2CBAE00000FEA
:10099900E4FF1200037BFF7A0379A2E4FDFF12084A
:1009A9003D7BFF7A0379B37D017F0112083D7BFF0F
:1009B9007A0379C07D02E4FF12083D7BFF7A03794F
:0809C900CF7D03E4FF02083DAD
:060697008B238A24892553
:10069D00E4FF12000385233585243685253775380B
:1006AD000075390C7B007A0079261208947BFF7A4D
:1006BD000379DFE4FDFF12083D7B007A007926E423
:1006CD00FD7F0212083D7BFF7A0379E37D01E4FF94
:1006DD0012083DAB23E5252410F9E43524FA7D01FC
:1006ED007F0312083D7BFF7A0379E97D02E4FF1257
:1006FD00083DAB23AA24A9259000181205D4FB7A36
:10070D00007D027F031209FE7BFF7A0379EF7D02E4
:10071D007F0512083D7BFF7A0379F27D03E4FF022A
:02072D00083D85
:100A2900E4FF1200037BFF7A0479017D017F021242
:100A3900083D7BFF7A04790C7D03E4FF12083D7FB2
:090A4900B87E0B120B1A02099988
:100A5200E4FF1200037BFF7A04791B7D017F0212FF
:100A6200083D7BFF7A0479247D03E4FF12083D7F71
:090A7200D07E07120B1A0209994B
:060B7600E5B05404FF226B
:060B7C00E5B05420FF2249
:10096000120B76EF70157F01FE120B1A120B76EF49
:100970007024120B76EF60FA7F0122120B7CEF706D
:10098000157F01FE120B1A120B7CEF7009120B7C03
:09099000EF60FA7F04227F0022CF
:0300000002072FC5
:0C072F00787FE4F6D8FD75814D02077656
:1005BB00BB010689828A83E0225002E722BBFE023E
:0905CB00E32289828A83E4932271
:1005D400BB010CE58229F582E5833AF583E02250DC
:1005E40006E92582F8E622BBFE06E92582F8E22226
:0D05F400E58229F582E5833AF583E4932240
:10060100BB010689828A83F0225002F722BBFE01D8
:02061100F322D2
:10004600E549243DF8E6054922783A300702783D2D
:10005600E475F0011206610205BB2000EB7F2ED28B
:10006600008018EF540F2490D43440D4FF30040B92
:10007600EF24BFB41A0050032461FFE54A6002155D
:100086004A054DE54D7002054C30070D783AE4758A
:10009600F001120661EF020601020A7B7403D20721
:1000A6008003E4C207F5498B3A8A3B893CE4F54A6A
:1000B600F54CF54DE54A60077F2012008180F57505
:1000C6004BFFC201C200C202C203C205C206C20879
:1000D60012004FFF700D3007057F00120092AF4DE2
:1000E600AE4C22B4255FC2D5C20412004FFF24D005
:1000F600B40A00501A75F00A784A30D50508B6FFDA
:100106000106C6A426F620D5047002D20380D9249F
:10011600CFB41A00EF5004C2E5D204020292D20113
:1001260080C6D20080C0D20280BCD2D580BAD205A9
:1001360080B47F201200812002077401B54A004076
:10014600F1120046FF1200810200BAD208D20680E0
:1001560095120046FB120046FA120046F94A4B7009
:100166000679637A037BFF20022EE54A602A7E0029
:100176008E827583001205D460060EEE654B70F014
:10018600C2D5EBC0E0EAC0E0E9C0E0EE1202D9D089
:10019600E0F9D0E0FAD0E0FB1205BBFF60AAEBC0A5
:1001A600E0EAC0E0E9C0E0120081D0E02401F9D025
:1001B600E03400FAD0E0FBE54B0460DCD54BD98097
:1001C600877BFF7A0279D5D202809C7910800279EA
:1001D60008C206C2088008D2D5790A8004790AC204
:1001E600D5E54B047002F54BE4FAFDFEFF1200461E
:1001F600FC7B08200113120046FD7B1030000A121A
:100206000046FE120046FF7B20EC3382D592D55085
:1002160013C3E43000069FFFE49EFEE42001039D25
:10022600FDE49CFCE4CBF8C201EC700CCFCECDCC47
:10023600E824F8F870F38017C3EF33FFEE33FEEDD2
:1002460033FDEC33FCEB33FB994002FB0FD8E9EBB3
:10025600300105F8D0E0C448B201C0E00AEC4D4ECA
:100266004F78207B0070C2EAB54B0040BCC0E0125C
:1002760002DBD0F0D0E0200104C4C0E0C4B201C06B
:10028600F012006AD0F0D5F0EB0200BA1206710146
:10029600575301D15801284C01244201D54F01DDA5
:0F02A6004401DD49013D4301E35501C74601C74E
:1002B5004501C747038350012C2D01302E01532BD7
:1002C500013423015120036C2A00EC480000014B46
:1002D5003F3F3F00790AA2D5200314300509B91024
:1002E500020404B9080104A2D52006025001042025
:1002F50002689202B54A005034C0E07F20300319ED
:100305007F30A20272067205500F120332C202C27A
:1003150006C205C2087F30800F300503E9C0E01230
:100325000081300503D0E0F9D0E0B54ACC3005179F
:100335007F30B9100C1200817F583004077F788018
:1003450003B908031200813002057F2D0200817F69
:10035500202008F87F2B2006F322920280CF286EFA
:10036500756C6C2900D2011200463001F8C2017883
:100375004A30D50108F60200EC2D504349581200C9
:10038500462403B405004001E490037E93120072F5
:0D039500743A120072D203754A040201D1BD
:100894008B328A338934E4F53AF53BE5391539AEC0
:1008A40038700215384E6033AB35AA36A9371205B5
:1008B400BBFFAB32AA33A934053BE53BAC3A70022B
:1008C400053A14F5828C83EF12063FEF60CD740174
:1008D4002537F537E43536F53680C0AB32AA33A96F
:0208E4003422BC
:1007BB008B238A248925AB26AA27A9281205BB607F
:1007CB0063AB23AA24A9251205BB605F8526298567
:1007DB00272A85282B8B2C8A2D892EAB29AA2AA96F
:1007EB002B1205BBFF6023AB2CAA2DA92E1205BB28
:1007FB006F701704252BF52BE4352AF52A74012588
:10080B002EF52EE4352DF52D80D1AB29AA2AA92B57
:10081B001205BB7002800D74012525F525E43524E6
:10082B00F524809DAB23AA24A925227B007A00798D
:02083B00002299
:10061300EF4E6012EF60010EEDBB010B89828A83FE
:10062300F0A3DFFCDEFA2289F05007F709DFFCA90B
:0C063300F022BBFEFCF309DFFCA9F02262
:10073B000204B0E493A3F8E493A34003F68001F220
:10074B0008DFF48029E493A3F85407240CC8C333BF
:10075B00C4540F4420C8834004F456800146F6DF8E
:10076B00E4800B0102040810204080900B06E47E0D
:10077B00019360BCA3FF543F30E509541FFEE49383
:10078B00A360010ECF54C025E060A840B8E493A34A
:10079B00FAE493A3F8E493A3C8C582C8CAC583CA75
:1007AB00F0A3C8C582C8CAC583CADFE9DEE780BE2D
:010B190000DB
:10063F00F8BB010DE58229F582E5833AF583E8F0F1
:10064F00225006E92582C8F622BBFE05E92582C89D
:02065F00F22285
:10066100FAE6FB0808E6F925F0F618E6CA3AF6229A
:10067100D083D082F8E4937012740193700DA3A318
:1006810093F8740193F5828883E47374029368602C
:06069100EFA3A3A380DF2C
:100A7B00EFB40A07740D120A86740A309811A899FC
:100A8B00B8130CC2983098FDA899C298B811F630DB
:070A9B0099FDC299F59922B3
:00000001FF
